:10E000000C9448700C945E700C945E700C945E706E
:10E010000C945E700C945E700C945E700C945E7048
:10E020000C945E700C945E700C945E700C945E7038
:10E030000C945E700C945E700C945E700C945E7028
:10E040000C945E700C945E700C946B720C9446721F
:10E050000C945E700C945E700C945E700C945E7008
:10E060000C945E700C945E700C945E700C945E70F8
:10E070000C945E700C945E700C945E70AA74C37401
:10E080007E757E757E75E774FD740F754E752F7500
:10E0900011241FBECFEFD0E1DEBFCDBF84B7809388
:10E0A0004C0414BE24E0A0E0B1E001C01D92AC34E9
:10E0B000B207E1F70E94E9730C94B9750C940070F3
:10E0C00080E0ADEEB0E0982F9295907F9C93EEEEBD
:10E0D000F0E01192E83FF105E1F78F5F863099F7A4
:10E0E00008958091EF00807C61F08091EE00982F80
:10E0F000907E903241F0903441F0903A41F08F712F
:10E1000008958FEF089580E2089580E4089580EAED
:10E110000895CF93DF93BC018091EF008F7099F049
:10E1200090E0CAEFD0E0AFEEB0E02881FB01E90F4C
:10E13000F11D20839F5F2C91492F50E02F7030E01C
:10E140004217530794F3DF91CF91089581E08093B4
:10E15000D80086E08093E2008CE08093E30087E3C0
:10E160008093E40081E0089520910A0130E02F5F60
:10E170003F4F2F713078332334F421503109206E12
:10E180003F6F2F5F3F4F40910B014217C1F040910D
:10E190000A0150E0440F551FBA01660F771F660F42
:10E1A000771F660F771F460F571F445F5E4FFC01B6
:10E1B0005183408320930A0181E090E0089580E03C
:10E1C00090E008950F931F9330910A0120910B0165
:10E1D000321709F496C020910B0130E0220F331F53
:10E1E000F901EE0FFF1FEE0FFF1FEE0FFF1F2E0FA7
:10E1F0003F1FF901E45FFE4F4481558166817781BD
:10E20000FC01448355836683778320910B0130E0C2
:10E21000220F331FF901EE0FFF1FEE0FFF1FEE0F4E
:10E22000FF1F2E0F3F1FF901E45FFE4F6185FC01C8
:10E23000618720910B0130E0220F331FF901EE0FAF
:10E24000FF1FEE0FFF1FEE0FFF1F2E0F3F1FF901E5
:10E25000E45FFE4F0081118122813381FC01008344
:10E2600011832283338320910B0130E0220F331F6F
:10E27000F901EE0FFF1FEE0FFF1FEE0FFF1F2E0F16
:10E280003F1FF901E45FFE4F2085FC01208770E00D
:10E2900016161706ECF4DC011A9640E050E0E09107
:10E2A0000B01F0E0EE0FFF1F9F01220F331F220F23
:10E2B000331F220F331FE20FF31FE45FFE4FE40F03
:10E2C000F51F82858D934F5F5F4F4617570739F7CC
:10E2D0002FB7F89480910B0190E001968F719078A0
:10E2E000992324F40197806E9F6F019680930B0110
:10E2F000809104018150809304012FBF81E090E060
:10E3000002C080E090E01F910F91089580E4809317
:10E31000ED000E9471708F3F49F080E58093ED0021
:10E320000E9471708F3F21F485E0089584E0089584
:10E330008FEF0895509A58980895509A589A0895D2
:10E34000CF933A983B98429A439A0E949D7180E0FD
:10E350000E94A670C82F882371F10E9460701092ED
:10E36000040110920A0110920B0180E02DEE30E0C2
:10E37000EFEEF0E04EEE50E0982F9295907FD901AD
:10E380009C9390819F739083908190689083DA0131
:10E390001C928F5F843081F781EF8093DB001092B5
:10E3A000DF008FE38093DE00E8EDF0E080818260A3
:10E3B00080830E949A718C2FCF910895CF93DF9321
:10E3C000EC010E94867188230CF44FC08295807FF7
:10E3D0008093ED00EFEEF0E010821092EE009D8150
:10E3E0008C8186958695869520E2929F800D1124DA
:10E3F0008093F3008C818295880F807E8093F20059
:10E4000080818F7E80838885882329F0E0EFF0E08B
:10E41000808184608083EFEEF0E090818985892B94
:10E42000808389858823B9F0FE013A9640E050E068
:10E43000BA012AEF30E08191D9018C934F5F5F4F91
:10E440006F4F7F4F898590E0A0E0B0E048175907F3
:10E450006A077B0780F3EFEEF0E080818F738083A3
:10E4600080818064808381E001C080E0DF91CF9172
:10E47000089520910401222339F00E94E27088233C
:10E4800021F08091040108958FEF08951F920F925B
:10E490000FB60F9211248F939F93AF93BF938091E8
:10E4A000000190910101A0910201B0910301019638
:10E4B000A11DB11D8093000190930101A093020161
:10E4C000B0930301BF91AF919F918F910F900FBEB9
:10E4D0000F901F9018951F920F920FB60F92112454
:10E4E0003F924F925F926F927F928F929F92AF92E4
:10E4F000BF92CF92DF92EF92FF920F931F932F93D1
:10E500003F934F935F936F937F938F939F93AF93BB
:10E51000BF93EF93FF93CF93DF9300D000D0CDB79D
:10E52000DEB7EAEDF0E0908180818F6480831A820B
:10E5300019823090ED00892F8F7409F0B9C0809155
:10E54000E00090E08F70907F892B09F490C000E08C
:10E5500010E00F2EF0EECF2ED12CF02D0F2EFDEE71
:10E560006F2E712CF02D0F2EFFEEEF2EF12CF02DD3
:10E570000F2EFEEE4F2E512CF02D0F2EF3EFAF2E5F
:10E58000B12CF02DD6018C9190E0002E02C0959513
:10E5900087950A94E2F780FF63C0802F8295807F81
:10E5A000F30180830E947170803229F00E947170A3
:10E5B000803A09F04CC0D5018C9182958695877080
:10E5C0008C83E2EFF0E090818C9192959695977014
:10E5D000880F880F880F890F8B838B809C80C401E4
:10E5E00080788038910599F1CE0101960E94B4702F
:10E5F000882369F1E981FA81309749F1A40160E04B
:10E6000070E04483558366837783A0EFB0E08C91FC
:10E6100082FB882780F98087D7018C918F70818752
:10E62000CF010A960E948970E981FA8180910001E8
:10E6300090910101A0910201B09103018083918327
:10E64000A283B383809104018F5F80930401F7015B
:10E6500080818F738083808180688083D2011C9247
:10E660000F5F1F4F0430110509F08CCF24C080913B
:10E67000E00084FF0CC080E48093ED000E94717084
:10E680001092EE00EFEEF0E080818F738083809136
:10E69000E00085FF10C080E58093ED000E9471705E
:10E6A0001092EE00EFEEF0E080818F73808303C064
:10E6B00096FD0E94A0713092ED000F900F900F9088
:10E6C0000F90DF91CF91FF91EF91BF91AF919F910B
:10E6D0008F917F916F915F914F913F912F911F91FA
:10E6E0000F91FF90EF90DF90CF90BF90AF909F90F1
:10E6F0008F907F906F905F904F903F900F900FBEE4
:10E700000F901F901895F89481E085BF15BE0C946A
:10E7100000000895ECE4F3E02CE434E08FEF819303
:10E72000E217F307E1F71092090110920501109228
:10E73000060110920701109208010895CF92DF920E
:10E74000EF92FF92CF93DF936B017C016FB7F89448
:10E75000F999FECFC60123E0F60120935700E89512
:10E7600007B600FCFDCFEA01D395DA0131E0FC01E8
:10E77000E41BF50BAF012C91FA01EA0FFB1F119678
:10E780008C91119790E0982F8827820F911D0C0192
:10E7900030935700E89511241296AC17BD0759F72E
:10E7A00085E0F60180935700E89507B600FCFDCFA1
:10E7B00007B600FCFDCFF999FECF81E180935700A9
:10E7C000E8956FBFDF91CF91FF90EF90DF90CF90F2
:10E7D00008952F923F924F925F926F927F928F9205
:10E7E0009F92AF92BF92CF92DF92EF92FF920F93E0
:10E7F0001F93CF93DF93CDB7DEB764970FB6F8942E
:10E80000DEBF0FBECDBF0FB6F894A8958091600013
:10E81000886180936000109260000FBE81E085BF28
:10E8200082E085BFE0E0F0E0E491EF3F41F080E07E
:10E8300090E00E94A375811102C00E9483730E9420
:10E84000A07178940E948A7381E090E00E94A37581
:10E85000082F88230CF401E0212C11E0802E912C4C
:10E86000689487F825E0922A092C000CAA08BB08B6
:10E870000F2EF0EF4F2EF02D6894552451F80F2EE7
:10E88000F1E53F2EF02D662463940F2EF1E27F2EEA
:10E89000F02D6894CC24C1F8D12C6894EE24E2F8D1
:10E8A000F12CCE0101960E9439728F3F09F426C1E6
:10E8B0008D819E81AF81B885282F2F7702131EC1CD
:10E8C00080788115964009F019C1EB85E23031F16D
:10E8D000E03561F58D829E82AF82B8861C866D869A
:10E8E0001E86E0E0F0E070925700E491EF87F601B9
:10E8F000709257008491888BF70170925700849131
:10E90000898B1A8A88E08A87CE0101960E94DE717F
:10E910008D829E82AF82B886262CF0C060E080E0B7
:10E9200090E00E94AB75F999FECFEAC0222009F46D
:10E93000D6C08D829E82AF82B8868E2F90E0FC0179
:10E94000E555F109EA30F10508F0D8C0E25CFF486E
:10E950000C949D758A85833021F04B863C865A86BF
:10E960000DC0F999FECF8C8590E0982F88272D85D2
:10E97000822B0E94A3758E87F4E0FA87CE01019660
:10E980000E94DE71BBC08A85843021F04B863C86B4
:10E990005A8618C0F999FECF8C8590E0982F882769
:10E9A0002D85AC01422B5C8B4B8B6E85CA010E947E
:10E9B000AB75F999FECF8B899C890E94A3758E87D0
:10E9C00054E05A87CE0101960E94DE7197C08A8575
:10E9D000833021F04B863C865A860AC0EC85F0E0F5
:10E9E000FE2FEE278D85E82BE491EE8784E08A8761
:10E9F000CE0101960E94DE7181C08A85823021F0AD
:10EA00004B863C865A8606C00E948A738C8580930A
:10EA100009015A86CE0101960E94DE716FC08A8577
:10EA2000813021F04B863C865A8614C06FEF80E01F
:10EA300090E00E94AB75F999FECF6091090170E0FA
:10EA4000762F6627072E000C880B990B4CE453E0B9
:10EA50000E949E73CE0101960E94DE714FC08A858E
:10EA6000843021F04B863C865A8613C08C8590E01A
:10EA7000982F88272D85822B8F3F910509F030F440
:10EA8000FC01E45BFC4F2E85208303C04B863C8653
:10EA90005A86CE0101960E94DE7130C08A8583308D
:10EAA00021F04B863C865A8615C08C8590E0982FC5
:10EAB00088272D85822B8F3F910509F040F4FC01BA
:10EAC000E45BFC4F80818E87E4E0EA8703C04B86DD
:10EAD0003C865A86CE0101960E94DE710FC011233A
:10EAE00079F08D829E82AF82B8864B86F0E5FC87F6
:10EAF0005A86CE0101960E94DE71D3CE1111D1CE7D
:10EB00000E94837380E090E064960FB6F894DEBFB5
:10EB10000FBECDBFDF91CF911F910F91FF90EF906E
:10EB2000DF90CF90BF90AF909F908F907F906F902D
:10EB30005F904F903F902F900895EE0FFF1F05902C
:10EB4000F491E02D0994F999FECF92BD81BDF89A18
:10EB5000992780B50895262FF999FECF1FBA92BD47
:10EB600081BD20BD0FB6F894FA9AF99A0FBE0196AE
:06EB70000895F894FFCFA8
:040000030000E00019
:00000001FF
